S00B000046616E2E7372656304
S11300000C942A000C943F000C943F000C943F0085
S11300100C943F000C943F000C943F000C943F0060
S11300200C943F000C943F000C943F000C943F0050
S11300300C943F000C943F000C943F000C943F0040
S11300400C943F000C943F000C943F000C943F0030
S11300500C943F0011241FBECFE5D8E0DEBFCDBF16
S113006010E0A0E6B0E0EEE0FAE002C005900D92E8
S1130070AE37B107D9F70E9456010C9405050C94CC
S1130080000087B1806487B987B1806887B986B179
S1130090806886B986B1846086B908958930B8F4D9
S11300A097B1907E892B87B986B1806486B9349BD9
S11300B0FECF89EF90E00197F1F700C0000024B172
S11300C085B190E0982F8827820F911D08958FEFB6
S11300D09FEF08959BB39F70282F207F922B9BBB8B
S11300E098B3926098BB98B39B7F98BB98B3916088
S11300F098BBE3ECF9E03197F1F700C0000098B346
S11301009E7F98BB2BB3F0E18F9FC0011124922FE7
S11301109F70892B8BBB83EC99E00197F1F700C0AA
S1130120000088B3816088BBE3ECF9E03197F1F714
S113013000C0000088B38E7F88BB08950F931F937F
S1130140CF93DF93CDB7DEB72A970FB6F894DEBF0F
S11301500FBECDBF00E010E020E030E011C06AE047
S113016070E00E944204E1E0F0E0EC0FFD1FE20FBA
S1130170F31F80832F5F3F4F862F972F0F5F1F4FF3
S1130180009769F7015011090CC0E1E0F0E0EC0FB1
S1130190FD1FE00FF11F8081805D0E946A00015005
S11301A01109112394F72A960FB6F894DEBF0FBEF7
S11301B0CDBFDF91CF911F910F9108959BB39F7095
S11301C0282F207F922B9BBB98B39D7F98BB98B31D
S11301D09B7F98BB98B3916098BBE9EFF0E03197AF
S11301E0F1F700C0000098B39E7F98BB2BB3F0E1F9
S11301F08F9FC0011124922F9F70892B8BBB89EF95
S113020090E00197F1F700C0000088B3816088BBDB
S1130210E9EFF0E03197F1F700C0000088B38E7F7A
S113022088BB87E893E10197F1F700C000000895C7
S11302308AB3806F8ABB87B3826087BB87B38460CD
S113024087BB87B3816087BB87E893E10197F1F7A8
S113025000C0000082E00E94DE0088E20E94DE000E
S11302608EE00E94DE0086E00E94DE0081E00E94B3
S1130270DE0087E893E10197F1F700C000000895DC
S11302800F931F93CF93DF938C01C0E0D0E003C0A2
S11302900E946A002196F801EC0FFD1F80818111F4
S11302A0F7CFDF91CF911F910F910895CF93DF93F3
S11302B0CDB7DEB728970FB6F894DEBF0FBECDBF1B
S11302C00E9418010E9441000E94680284B3806465
S11302D084BB84B3806884BB8AB38E7F8ABB212CA1
S11302E0312C19821A821B821C821D821E8209C033
S11302F02884392C8F8189838A827B826C825D82F7
S11303004E8280E00E944E00B92EA82E8887992E36
S1130310892F880F880B8F83882E782E682C582C71
S1130320482C222D332D49815A816B817C818D810A
S11303309E81C82CD82CE82CF82C082D182D0E944E
S1130340CD04F9F281E00E94DE00A12C0F2EFAE028
S1130350BF2EF02DC12CD12CE12CF12C00E010E0AB
S11303602885392D4F81582D682D782D882D982D6D
S11303700E945604B22FF32FE42F59836A837B83A0
S1130380282E392EA0E00E94D60484F421503C4F3C
S11303904F4F5F4F6F4F7F4F8F4F9F4FB22FF32FB2
S11303A0E42F59836A837B83282E392E2B2F3F2FEA
S11303B04E2F59816A817B81822D932D0AE00E9400
S11303C0AF04822F932F6AE070E00E9442048B01F5
S11303D07B0180E690E00E944001C8010E949E00DB
S11303E0093111059CF480EC0E94DE008EE690E059
S11303F00E94400185B38F7B85BB85B38F7785BB16
S113040060E070E0CB010E94820272CFC80149977C
S11304100597A0F480EC0E94DE0086E790E00E943D
S1130420400185B3806485BB85B38F7785BB60E06D
S113043070E080E89EE30E9482025ACFC8014E9782
S11304400597A0F480EC0E94DE0086E790E00E940D
S1130450400185B3806485BB85B38F7785BB60E03D
S113046070E080E09FE30E94820242CF03521109B0
S113047005301105A0F480EC0E94DE0086E790E0D0
S11304800E94400185B3806485BB85B38F7785BBAB
S113049060E070E080E49FE30E94820229CF88E25A
S11304A0E816F1040CF424CF80EC0E94DE0086E709
S11304B090E00E94400185B3806485BB85B38F774B
S11304C085BB60E070E080E89FE30E94820210CF69
S11304D083B7806483BF83B7886083BF87B3886032
S11304E087BB83B78E7F83BF83B7826083BF83B7A5
S11304F08B7F83BF83B78F7E83BF83B7806283BFC5
S11305001CBE0895CF92DF92EF92FF926B017C01A3
S113051020E030E0A9010E94D0031816E4F420E0A2
S113052030E040E85FE3C701B6010E9427031816D4
S113053094F020E030E040E853E4C701B6010E94A3
S1130540D50320E030E040E85FE30E94BA020E9455
S11305502C036CBF0AC020E030E0A901C701B6013A
S11305600E94270318160CF01CBEFF90EF90DF903A
S1130570CF9008955058BB27AA270E94D2020C940A
S113058096030E94880338F00E948F0320F039F408
S11305909F3F19F426F40C9485030EF4E095E7FBD1
S11305A00C947F03E92F0E94A70358F3BA1762073C
S11305B073078407950720F079F4A6F50C94C90312
S11305C00EF4E0950B2EBA2FA02D0B01B90190016A
S11305D00C01CA01A0011124FF27591B99F0593FAE
S11305E050F4503E68F11A16F040A22F232F342FF6
S11305F04427585FF3CF469537952795A795F04044
S11306005395C9F77EF41F16BA0B620B730B840B58
S1130610BAF09150A1F0FF0FBB1F661F771F881F10
S1130620C2F70EC0BA0F621F731F841F48F4879568
S113063077956795B795F7959E3F08F0B0CF93955A
S1130640880F08F09927EE0F9795879508950E94D3
S11306505B0308F481E008950E94AF0388F09F577C
S113066098F0B92F9927B751B0F0E1F0660F771FD2
S1130670881F991F1AF0BA95C9F714C0B13091F0C8
S11306800E94C903B1E008950C94C903672F782F21
S11306908827B85F39F0B93FCCF38695779567958D
S11306A0B395D9F73EF490958095709561957F4FF9
S11306B08F4F9F4F0895990F0008550FAA0BE0E83C
S11306C0FEEF16161706E807F907C0F01216130610
S11306D0E407F50798F0621B730B840B950B39F450
S11306E00A2661F0232B242B252B21F408950A26B6
S11306F009F4A140A6958FEF811D811D089597F9F6
S11307009F6780E870E060E008959FEF80EC0895B3
S113071000240A94161617061806090608950024DC
S11307200A9412161306140605060895092E039456
S1130730000C11F4882352F0BB0F40F4BF2B11F4CA
S113074060FF04C06F5F7F4F8F4F9F4F089557FD29
S11307509058440F551F59F05F3F71F04795880F2B
S113076097FB991F61F09F3F79F0879508951216C2
S113077013061406551FF2CF4695F1DF08C016166E
S113078017061806991FF1CF86957105610508941F
S11307900895E894BB2766277727CB0197F9089536
S11307A00E945B0308F48FEF08950E94E8030C9401
S11307B096030E94880338F00E948F0320F095234B
S11307C011F00C947F030C94850311240C94CA0338
S11307D00E94A70370F3959FC1F3950F50E0551F36
S11307E0629FF001729FBB27F00DB11D639FAA2782
S11307F0F00DB11DAA1F649F6627B00DA11D661FD1
S1130800829F2227B00DA11D621F739FB00DA11DF1
S1130810621F839FA00D611D221F749F3327A00DAB
S1130820611D231F849F600D211D822F762F6A2F47
S113083011249F5750409AF0F1F088234AF0EE0FAC
S1130840FF1FBB1F661F771F881F91505040A9F7D9
S11308509E3F510580F00C947F030C94CA035F3FC4
S1130860E4F3983ED4F3869577956795B795F79515
S1130870E7959F5FC1F7FE2B880F911D969587958D
S113088097F9089597FB072E16F4009407D077FD87
S113089009D00E94E20407FC05D03EF490958195AE
S11308A09F4F0895709561957F4F0895DF93CF937F
S11308B01F930F939A9DF02D219FF00D8B9DF00DAA
S11308C08A9DE02DF10D039FF00D029FE00DF11DB7
S11308D04E9DE00DF11D5E9DF00D4F9DF00D7F933B
S11308E06F93BF92AF925F934F93D5010E94F6042A
S11308F08B01AC01D7010E94F604EB01E80FF91F4C
S1130900D6010E94A6042F913F91D6010E94F604BD
S1130910C60FD71FE81FF91FAF91BF910E94A6040D
S11309202F913F910E94F604C60FD71FE81FF91FAD
S1130930D6010E94F604E60FF71F9801BE01CF010D
S113094011240F911F91CF91DF9108950E94F60415
S1130950460F571FC81FD91F08F43196089597FBF7
S113096010F8169400080F93083098F00850232FBD
S1130970342F452F562F672F782F892F902DF4CFA2
S113098005949795879577956795579547953795E6
S113099027950A95AAF70F9108952A153B054C054A
S11309A05D056E057F058007910708950024A7FD66
S11309B000942A1730054005500560057005800530
S11309C090050895AA1BBB1B51E107C0AA1FBB1FBA
S11309D0A617B70710F0A61BB70B881F991F5A95C7
S11309E0A9F780959095BC01CD010895A29FB0010F
S11309F0B39FC001A39F700D811D1124911DB29F4F
S1110A00700D811D1124911D0895F894FFCFEF
S1130A0E74656D70726174757265203D2000466167
S1110A1E6E206F66660046616E206F6E0000EB
S9030000FC
